{
  "contractName": "MarketPlace",
  "abi": [
    {
      "inputs": [],
      "stateMutability": "nonpayable",
      "type": "constructor"
    },
    {
      "anonymous": false,
      "inputs": [
        {
          "indexed": true,
          "internalType": "address",
          "name": "from",
          "type": "address"
        },
        {
          "indexed": false,
          "internalType": "uint256",
          "name": "amount",
          "type": "uint256"
        }
      ],
      "name": "PaymentReceived",
      "type": "event"
    },
    {
      "anonymous": false,
      "inputs": [
        {
          "indexed": true,
          "internalType": "address",
          "name": "to",
          "type": "address"
        },
        {
          "indexed": false,
          "internalType": "uint256",
          "name": "amount",
          "type": "uint256"
        }
      ],
      "name": "PaymentSent",
      "type": "event"
    },
    {
      "inputs": [],
      "name": "ecommerceWallet",
      "outputs": [
        {
          "internalType": "address payable",
          "name": "",
          "type": "address"
        }
      ],
      "stateMutability": "view",
      "type": "function",
      "constant": true
    },
    {
      "inputs": [],
      "name": "owner",
      "outputs": [
        {
          "internalType": "address",
          "name": "",
          "type": "address"
        }
      ],
      "stateMutability": "view",
      "type": "function",
      "constant": true
    },
    {
      "stateMutability": "payable",
      "type": "receive",
      "payable": true
    },
    {
      "inputs": [
        {
          "internalType": "uint256",
          "name": "amount",
          "type": "uint256"
        }
      ],
      "name": "withdrawFunds",
      "outputs": [],
      "stateMutability": "nonpayable",
      "type": "function"
    },
    {
      "inputs": [],
      "name": "sendPayment",
      "outputs": [],
      "stateMutability": "payable",
      "type": "function",
      "payable": true
    }
  ],
  "bytecode": "0x608060405234801561001057600080fd5b50336000806101000a81548173ffffffffffffffffffffffffffffffffffffffff021916908373ffffffffffffffffffffffffffffffffffffffff16021790555060008054906101000a900473ffffffffffffffffffffffffffffffffffffffff16600160006101000a81548173ffffffffffffffffffffffffffffffffffffffff021916908373ffffffffffffffffffffffffffffffffffffffff160217905550610636806100c16000396000f3fe6080604052600436106100435760003560e01c8063155dd5ee1461009d5780636720ceb1146100c65780638da5cb5b146100d0578063bb5899b1146100fb57610098565b36610098573373ffffffffffffffffffffffffffffffffffffffff167f6ef95f06320e7a25a04a175ca677b7052bdd97131872c2192525a629f51be7703460405161008e919061056f565b60405180910390a2005b600080fd5b3480156100a957600080fd5b506100c460048036038101906100bf9190610377565b610126565b005b6100ce610263565b005b3480156100dc57600080fd5b506100e5610318565b6040516100f291906104d9565b60405180910390f35b34801561010757600080fd5b5061011061033c565b60405161011d91906104f4565b60405180910390f35b60008054906101000a900473ffffffffffffffffffffffffffffffffffffffff1673ffffffffffffffffffffffffffffffffffffffff163373ffffffffffffffffffffffffffffffffffffffff16146101b4576040517f08c379a00000000000000000000000000000000000000000000000000000000081526004016101ab9061050f565b60405180910390fd5b478111156101f7576040517f08c379a00000000000000000000000000000000000000000000000000000000081526004016101ee9061052f565b60405180910390fd5b600160009054906101000a900473ffffffffffffffffffffffffffffffffffffffff1673ffffffffffffffffffffffffffffffffffffffff166108fc829081150290604051600060405180830381858888f1935050505015801561025f573d6000803e3d6000fd5b5050565b600034116102a6576040517f08c379a000000000000000000000000000000000000000000000000000000000815260040161029d9061054f565b60405180910390fd5b600160009054906101000a900473ffffffffffffffffffffffffffffffffffffffff1673ffffffffffffffffffffffffffffffffffffffff167f47db2abce6d5fbcd80ffd9b4ba74dcde804a746ef732bc7f8a70fabfc912c5903460405161030e919061056f565b60405180910390a2565b60008054906101000a900473ffffffffffffffffffffffffffffffffffffffff1681565b600160009054906101000a900473ffffffffffffffffffffffffffffffffffffffff1681565b600081359050610371816105e9565b92915050565b60006020828403121561038957600080fd5b600061039784828501610362565b91505092915050565b6103a9816105ad565b82525050565b6103b88161059b565b82525050565b60006103cb60258361058a565b91507f4f6e6c7920746865206f776e65722063616e2063616c6c20746869732066756e60008301527f6374696f6e0000000000000000000000000000000000000000000000000000006020830152604082019050919050565b600061043160148361058a565b91507f496e73756666696369656e742062616c616e63650000000000000000000000006000830152602082019050919050565b600061047160258361058a565b91507f5061796d656e7420616d6f756e74206d7573742062652067726561746572207460008301527f68616e20300000000000000000000000000000000000000000000000000000006020830152604082019050919050565b6104d3816105df565b82525050565b60006020820190506104ee60008301846103af565b92915050565b600060208201905061050960008301846103a0565b92915050565b60006020820190508181036000830152610528816103be565b9050919050565b6000602082019050818103600083015261054881610424565b9050919050565b6000602082019050818103600083015261056881610464565b9050919050565b600060208201905061058460008301846104ca565b92915050565b600082825260208201905092915050565b60006105a6826105bf565b9050919050565b60006105b8826105bf565b9050919050565b600073ffffffffffffffffffffffffffffffffffffffff82169050919050565b6000819050919050565b6105f2816105df565b81146105fd57600080fd5b5056fea2646970667358221220b1c982097142382bafed3e244d2e534a6afe292634fe76ff53bd50ea027d08f164736f6c63430008000033",
  "immutableReferences": {},
  "source": "// SPDX-License-Identifier: MIT\r\npragma solidity ^0.8.0;\r\n\r\ncontract MarketPlace {\r\n    address public owner;  // Address of the owner (you)\r\n    address payable public ecommerceWallet;  // Address where payments will be received\r\n\r\n    event PaymentReceived(address indexed from, uint256 amount);\r\n    event PaymentSent(address indexed to, uint256 amount);\r\n\r\n    constructor() {\r\n        owner = msg.sender;\r\n        ecommerceWallet = payable(owner);\r\n    }\r\n\r\n    modifier onlyOwner() {\r\n        require(msg.sender == owner, \"Only the owner can call this function\");\r\n        _;\r\n    }\r\n\r\n    // Function to receive Ether payments\r\n    receive() external payable {\r\n        emit PaymentReceived(msg.sender, msg.value);\r\n    }\r\n\r\n    // Function to withdraw funds from the contract (only owner)\r\n    function withdrawFunds(uint256 amount) public onlyOwner {\r\n        require(amount <= address(this).balance, \"Insufficient balance\");\r\n        ecommerceWallet.transfer(amount);\r\n    }\r\n\r\n    // Function to send a payment to the ecommerceWallet\r\n    function sendPayment() public payable {\r\n        require(msg.value > 0, \"Payment amount must be greater than 0\");\r\n        emit PaymentSent(ecommerceWallet, msg.value);\r\n    }\r\n}",
  "sourcePath": "C:\\Files\\Learn\\MERN\\web3_try\\web3_mern\\backend\\contracts\\MarketPlace.sol",
  "compiler": {
    "name": "solc",
    "version": "0.8.0+commit.c7dfd78e.Emscripten.clang"
  },
  "schemaVersion": "3.4.15",
  "updatedAt": "2023-09-06T11:42:43.694Z",
  "networkType": "ethereum",
  "devdoc": {
    "kind": "dev",
    "methods": {},
    "version": 1
  },
  "userdoc": {
    "kind": "user",
    "methods": {},
    "version": 1
  }
}